{
  "contractName": "Voting",
  "abi": [
    {
      "inputs": [
        {
          "internalType": "uint256",
          "name": "_votingTimeInMinutes",
          "type": "uint256"
        }
      ],
      "stateMutability": "nonpayable",
      "type": "constructor"
    },
    {
      "anonymous": false,
      "inputs": [
        {
          "indexed": true,
          "internalType": "uint256",
          "name": "candidateId",
          "type": "uint256"
        },
        {
          "indexed": false,
          "internalType": "string",
          "name": "name",
          "type": "string"
        }
      ],
      "name": "candidateAdded",
      "type": "event"
    },
    {
      "anonymous": false,
      "inputs": [
        {
          "indexed": true,
          "internalType": "uint256",
          "name": "candidateId",
          "type": "uint256"
        }
      ],
      "name": "votedEvent",
      "type": "event"
    },
    {
      "anonymous": false,
      "inputs": [
        {
          "indexed": false,
          "internalType": "uint256",
          "name": "newDeadline",
          "type": "uint256"
        }
      ],
      "name": "votingDeadlineChanged",
      "type": "event"
    },
    {
      "inputs": [],
      "name": "admin",
      "outputs": [
        {
          "internalType": "address",
          "name": "",
          "type": "address"
        }
      ],
      "stateMutability": "view",
      "type": "function",
      "constant": true
    },
    {
      "inputs": [
        {
          "internalType": "uint256",
          "name": "",
          "type": "uint256"
        }
      ],
      "name": "candidates",
      "outputs": [
        {
          "internalType": "uint256",
          "name": "id",
          "type": "uint256"
        },
        {
          "internalType": "string",
          "name": "name",
          "type": "string"
        },
        {
          "internalType": "uint256",
          "name": "voteCount",
          "type": "uint256"
        }
      ],
      "stateMutability": "view",
      "type": "function",
      "constant": true
    },
    {
      "inputs": [],
      "name": "candidatesCount",
      "outputs": [
        {
          "internalType": "uint256",
          "name": "",
          "type": "uint256"
        }
      ],
      "stateMutability": "view",
      "type": "function",
      "constant": true
    },
    {
      "inputs": [
        {
          "internalType": "address",
          "name": "",
          "type": "address"
        }
      ],
      "name": "voters",
      "outputs": [
        {
          "internalType": "bool",
          "name": "",
          "type": "bool"
        }
      ],
      "stateMutability": "view",
      "type": "function",
      "constant": true
    },
    {
      "inputs": [],
      "name": "votingDeadline",
      "outputs": [
        {
          "internalType": "uint256",
          "name": "",
          "type": "uint256"
        }
      ],
      "stateMutability": "view",
      "type": "function",
      "constant": true
    },
    {
      "inputs": [
        {
          "internalType": "string",
          "name": "_name",
          "type": "string"
        }
      ],
      "name": "addCandidate",
      "outputs": [],
      "stateMutability": "nonpayable",
      "type": "function"
    },
    {
      "inputs": [
        {
          "internalType": "uint256",
          "name": "_candidateId",
          "type": "uint256"
        }
      ],
      "name": "vote",
      "outputs": [],
      "stateMutability": "nonpayable",
      "type": "function"
    },
    {
      "inputs": [
        {
          "internalType": "uint256",
          "name": "newDeadline",
          "type": "uint256"
        }
      ],
      "name": "changeDeadline",
      "outputs": [],
      "stateMutability": "nonpayable",
      "type": "function"
    }
  ],
  "bytecode": "0x608060405234801562000010575f80fd5b50604051620017f4380380620017f4833981810160405281019062000036919062000261565b3360035f6101000a81548173ffffffffffffffffffffffffffffffffffffffff021916908373ffffffffffffffffffffffffffffffffffffffff160217905550603c81620000859190620002be565b4262000092919062000308565b600481905550620000de6040518060400160405280600481526020017f52616d61000000000000000000000000000000000000000000000000000000008152506200017160201b60201c565b620001246040518060400160405280600481526020017f4e69636b000000000000000000000000000000000000000000000000000000008152506200017160201b60201c565b6200016a6040518060400160405280600481526020017f4a6f7365000000000000000000000000000000000000000000000000000000008152506200017160201b60201c565b5062000779565b60025f815480929190620001859062000342565b9190505550604051806060016040528060025481526020018281526020015f8152505f8060025481526020019081526020015f205f820151815f01556020820151816001019081620001d89190620005e9565b50604082015181600201559050506002547f4e533c53f778a27389df73e6c2093f620b89f32beda6edc0a994be6ab49e7cce826040516200021a919062000757565b60405180910390a250565b5f80fd5b5f819050919050565b6200023d8162000229565b811462000248575f80fd5b50565b5f815190506200025b8162000232565b92915050565b5f6020828403121562000279576200027862000225565b5b5f62000288848285016200024b565b91505092915050565b7f4e487b71000000000000000000000000000000000000000000000000000000005f52601160045260245ffd5b5f620002ca8262000229565b9150620002d78362000229565b9250828202620002e78162000229565b9150828204841483151762000301576200030062000291565b5b5092915050565b5f620003148262000229565b9150620003218362000229565b92508282019050808211156200033c576200033b62000291565b5b92915050565b5f6200034e8262000229565b91507fffffffffffffffffffffffffffffffffffffffffffffffffffffffffffffffff820362000383576200038262000291565b5b600182019050919050565b5f81519050919050565b7f4e487b71000000000000000000000000000000000000000000000000000000005f52604160045260245ffd5b7f4e487b71000000000000000000000000000000000000000000000000000000005f52602260045260245ffd5b5f60028204905060018216806200040a57607f821691505b60208210810362000420576200041f620003c5565b5b50919050565b5f819050815f5260205f209050919050565b5f6020601f8301049050919050565b5f82821b905092915050565b5f60088302620004847fffffffffffffffffffffffffffffffffffffffffffffffffffffffffffffffff8262000447565b62000490868362000447565b95508019841693508086168417925050509392505050565b5f819050919050565b5f620004d1620004cb620004c58462000229565b620004a8565b62000229565b9050919050565b5f819050919050565b620004ec83620004b1565b62000504620004fb82620004d8565b84845462000453565b825550505050565b5f90565b6200051a6200050c565b62000527818484620004e1565b505050565b5b818110156200054e57620005425f8262000510565b6001810190506200052d565b5050565b601f8211156200059d57620005678162000426565b620005728462000438565b8101602085101562000582578190505b6200059a620005918562000438565b8301826200052c565b50505b505050565b5f82821c905092915050565b5f620005bf5f1984600802620005a2565b1980831691505092915050565b5f620005d98383620005ae565b9150826002028217905092915050565b620005f4826200038e565b67ffffffffffffffff81111562000610576200060f62000398565b5b6200061c8254620003f2565b6200062982828562000552565b5f60209050601f8311600181146200065f575f84156200064a578287015190505b620006568582620005cc565b865550620006c5565b601f1984166200066f8662000426565b5f5b82811015620006985784890151825560018201915060208501945060208101905062000671565b86831015620006b85784890151620006b4601f891682620005ae565b8355505b6001600288020188555050505b505050505050565b5f82825260208201905092915050565b5f5b83811015620006fc578082015181840152602081019050620006df565b5f8484015250505050565b5f601f19601f8301169050919050565b5f62000723826200038e565b6200072f8185620006cd565b935062000741818560208601620006dd565b6200074c8162000707565b840191505092915050565b5f6020820190508181035f83015262000771818462000717565b905092915050565b61106d80620007875f395ff3fe608060405234801561000f575f80fd5b5060043610610086575f3560e01c8063462e91ec11610059578063462e91ec146101145780637aca97b514610130578063a3ec138d1461014c578063f851a4401461017c57610086565b80630121b93f1461008a578063036ee850146100a65780632d35a8a2146100c45780633477ee2e146100e2575b5f80fd5b6100a4600480360381019061009f9190610740565b61019a565b005b6100ae610364565b6040516100bb919061077a565b60405180910390f35b6100cc61036a565b6040516100d9919061077a565b60405180910390f35b6100fc60048036038101906100f79190610740565b610370565b60405161010b9392919061081d565b60405180910390f35b61012e60048036038101906101299190610985565b61041b565b005b61014a60048036038101906101459190610740565b6104fa565b005b61016660048036038101906101619190610a26565b61060c565b6040516101739190610a6b565b60405180910390f35b610184610629565b6040516101919190610a93565b60405180910390f35b60045442106101de576040517f08c379a00000000000000000000000000000000000000000000000000000000081526004016101d590610af6565b60405180910390fd5b60015f3373ffffffffffffffffffffffffffffffffffffffff1673ffffffffffffffffffffffffffffffffffffffff1681526020019081526020015f205f9054906101000a900460ff1615610268576040517f08c379a000000000000000000000000000000000000000000000000000000000815260040161025f90610b5e565b60405180910390fd5b5f8111801561027957506002548111155b6102b8576040517f08c379a00000000000000000000000000000000000000000000000000000000081526004016102af90610bc6565b60405180910390fd5b6001805f3373ffffffffffffffffffffffffffffffffffffffff1673ffffffffffffffffffffffffffffffffffffffff1681526020019081526020015f205f6101000a81548160ff0219169083151502179055505f808281526020019081526020015f206002015f81548092919061032f90610c11565b9190505550807ffff3c900d938d21d0990d786e819f29b8d05c1ef587b462b939609625b684b1660405160405180910390a250565b60045481565b60025481565b5f602052805f5260405f205f91509050805f01549080600101805461039490610c85565b80601f01602080910402602001604051908101604052809291908181526020018280546103c090610c85565b801561040b5780601f106103e25761010080835404028352916020019161040b565b820191905f5260205f20905b8154815290600101906020018083116103ee57829003601f168201915b5050505050908060020154905083565b60035f9054906101000a900473ffffffffffffffffffffffffffffffffffffffff1673ffffffffffffffffffffffffffffffffffffffff163373ffffffffffffffffffffffffffffffffffffffff16146104aa576040517f08c379a00000000000000000000000000000000000000000000000000000000081526004016104a190610d25565b60405180910390fd5b60045442106104ee576040517f08c379a00000000000000000000000000000000000000000000000000000000081526004016104e590610af6565b60405180910390fd5b6104f78161064e565b50565b60035f9054906101000a900473ffffffffffffffffffffffffffffffffffffffff1673ffffffffffffffffffffffffffffffffffffffff163373ffffffffffffffffffffffffffffffffffffffff1614610589576040517f08c379a000000000000000000000000000000000000000000000000000000000815260040161058090610d25565b60405180910390fd5b4281116105cb576040517f08c379a00000000000000000000000000000000000000000000000000000000081526004016105c290610d8d565b60405180910390fd5b806004819055507ff17fde07a5d61d74817008dc2b19be213642b4a7ab406b0e590a22e0a1eaae2381604051610601919061077a565b60405180910390a150565b6001602052805f5260405f205f915054906101000a900460ff1681565b60035f9054906101000a900473ffffffffffffffffffffffffffffffffffffffff1681565b60025f81548092919061066090610c11565b9190505550604051806060016040528060025481526020018281526020015f8152505f8060025481526020019081526020015f205f820151815f015560208201518160010190816106b19190610f48565b50604082015181600201559050506002547f4e533c53f778a27389df73e6c2093f620b89f32beda6edc0a994be6ab49e7cce826040516106f19190611017565b60405180910390a250565b5f604051905090565b5f80fd5b5f80fd5b5f819050919050565b61071f8161070d565b8114610729575f80fd5b50565b5f8135905061073a81610716565b92915050565b5f6020828403121561075557610754610705565b5b5f6107628482850161072c565b91505092915050565b6107748161070d565b82525050565b5f60208201905061078d5f83018461076b565b92915050565b5f81519050919050565b5f82825260208201905092915050565b5f5b838110156107ca5780820151818401526020810190506107af565b5f8484015250505050565b5f601f19601f8301169050919050565b5f6107ef82610793565b6107f9818561079d565b93506108098185602086016107ad565b610812816107d5565b840191505092915050565b5f6060820190506108305f83018661076b565b818103602083015261084281856107e5565b9050610851604083018461076b565b949350505050565b5f80fd5b5f80fd5b7f4e487b71000000000000000000000000000000000000000000000000000000005f52604160045260245ffd5b610897826107d5565b810181811067ffffffffffffffff821117156108b6576108b5610861565b5b80604052505050565b5f6108c86106fc565b90506108d4828261088e565b919050565b5f67ffffffffffffffff8211156108f3576108f2610861565b5b6108fc826107d5565b9050602081019050919050565b828183375f83830152505050565b5f610929610924846108d9565b6108bf565b9050828152602081018484840111156109455761094461085d565b5b610950848285610909565b509392505050565b5f82601f83011261096c5761096b610859565b5b813561097c848260208601610917565b91505092915050565b5f6020828403121561099a57610999610705565b5b5f82013567ffffffffffffffff8111156109b7576109b6610709565b5b6109c384828501610958565b91505092915050565b5f73ffffffffffffffffffffffffffffffffffffffff82169050919050565b5f6109f5826109cc565b9050919050565b610a05816109eb565b8114610a0f575f80fd5b50565b5f81359050610a20816109fc565b92915050565b5f60208284031215610a3b57610a3a610705565b5b5f610a4884828501610a12565b91505092915050565b5f8115159050919050565b610a6581610a51565b82525050565b5f602082019050610a7e5f830184610a5c565b92915050565b610a8d816109eb565b82525050565b5f602082019050610aa65f830184610a84565b92915050565b7f566f74696e6720646561646c696e6520686173207061737365642e00000000005f82015250565b5f610ae0601b8361079d565b9150610aeb82610aac565b602082019050919050565b5f6020820190508181035f830152610b0d81610ad4565b9050919050565b7f416c726561647920766f7465642e0000000000000000000000000000000000005f82015250565b5f610b48600e8361079d565b9150610b5382610b14565b602082019050919050565b5f6020820190508181035f830152610b7581610b3c565b9050919050565b7f496e76616c69642063616e6469646174650000000000000000000000000000005f82015250565b5f610bb060118361079d565b9150610bbb82610b7c565b602082019050919050565b5f6020820190508181035f830152610bdd81610ba4565b9050919050565b7f4e487b71000000000000000000000000000000000000000000000000000000005f52601160045260245ffd5b5f610c1b8261070d565b91507fffffffffffffffffffffffffffffffffffffffffffffffffffffffffffffffff8203610c4d57610c4c610be4565b5b600182019050919050565b7f4e487b71000000000000000000000000000000000000000000000000000000005f52602260045260245ffd5b5f6002820490506001821680610c9c57607f821691505b602082108103610caf57610cae610c58565b5b50919050565b7f4f6e6c792061646d696e2063616e20706572666f726d207468697320616374695f8201527f6f6e2e0000000000000000000000000000000000000000000000000000000000602082015250565b5f610d0f60238361079d565b9150610d1a82610cb5565b604082019050919050565b5f6020820190508181035f830152610d3c81610d03565b9050919050565b7f446561646c696e65206d75737420626520696e207468652066757475726500005f82015250565b5f610d77601e8361079d565b9150610d8282610d43565b602082019050919050565b5f6020820190508181035f830152610da481610d6b565b9050919050565b5f819050815f5260205f209050919050565b5f6020601f8301049050919050565b5f82821b905092915050565b5f60088302610e077fffffffffffffffffffffffffffffffffffffffffffffffffffffffffffffffff82610dcc565b610e118683610dcc565b95508019841693508086168417925050509392505050565b5f819050919050565b5f610e4c610e47610e428461070d565b610e29565b61070d565b9050919050565b5f819050919050565b610e6583610e32565b610e79610e7182610e53565b848454610dd8565b825550505050565b5f90565b610e8d610e81565b610e98818484610e5c565b505050565b5b81811015610ebb57610eb05f82610e85565b600181019050610e9e565b5050565b601f821115610f0057610ed181610dab565b610eda84610dbd565b81016020851015610ee9578190505b610efd610ef585610dbd565b830182610e9d565b50505b505050565b5f82821c905092915050565b5f610f205f1984600802610f05565b1980831691505092915050565b5f610f388383610f11565b9150826002028217905092915050565b610f5182610793565b67ffffffffffffffff811115610f6a57610f69610861565b5b610f748254610c85565b610f7f828285610ebf565b5f60209050601f831160018114610fb0575f8415610f9e578287015190505b610fa88582610f2d565b86555061100f565b601f198416610fbe86610dab565b5f5b82811015610fe557848901518255600182019150602085019450602081019050610fc0565b868310156110025784890151610ffe601f891682610f11565b8355505b6001600288020188555050505b505050505050565b5f6020820190508181035f83015261102f81846107e5565b90509291505056fea264697066735822122010357c540d7e82bc95186d77c6b8c39481c61304e272cfcb0146bbabe2e17eec64736f6c63430008150033",
  "immutableReferences": {},
  "source": "// SPDX-License-Identifier: MIT\npragma solidity ^0.8.0;\n\ncontract Voting {\n    // --- Data Structures ---\n    struct Candidate {\n        uint id;\n        string name;\n        uint voteCount;\n    }\n\n    mapping(uint => Candidate) public candidates;\n    mapping(address => bool) public voters;\n    uint public candidatesCount;\n\n    // --- Admin & Deadline ---\n    address public admin;  // The admin who can add candidates after deployment\n    uint public votingDeadline;  // Unix timestamp when voting ends\n\n    // --- Events ---\n    event votedEvent(uint indexed candidateId);\n    event candidateAdded(uint indexed candidateId, string name);\n    event votingDeadlineChanged(uint newDeadline);\n\n    // --- Modifiers ---\n    modifier onlyAdmin() {\n        require(msg.sender == admin, \"Only admin can perform this action.\");\n        _;\n    }\n\n    modifier beforeDeadline() {\n        require(block.timestamp < votingDeadline, \"Voting deadline has passed.\");\n        _;\n    }\n\n    // --- Constructor ---\n    constructor(uint _votingTimeInMinutes) {\n        admin = msg.sender; // set the deployer as admin\n        // Set deadline (for example, X minutes from deployment)\n        votingDeadline = block.timestamp + (_votingTimeInMinutes * 1 minutes);\n\n        // Initially add some candidates (admin actions)\n        _addCandidate(\"Rama\");\n        _addCandidate(\"Nick\");\n        _addCandidate(\"Jose\");\n    }\n\n    // --- Internal Candidate Addition ---\n    function _addCandidate(string memory _name) internal {\n        candidatesCount++;\n        candidates[candidatesCount] = Candidate(candidatesCount, _name, 0);\n        emit candidateAdded(candidatesCount, _name);\n    }\n\n    // --- Admin Function to Add Candidate After Deployment ---\n    function addCandidate(string memory _name) public onlyAdmin beforeDeadline {\n        _addCandidate(_name);\n    }\n\n    // --- Voting Function ---\n    function vote(uint _candidateId) public beforeDeadline {\n        require(!voters[msg.sender], \"Already voted.\");\n        require(\n            _candidateId > 0 && _candidateId <= candidatesCount,\n            \"Invalid candidate\"\n        );\n        voters[msg.sender] = true;\n        candidates[_candidateId].voteCount++;\n        emit votedEvent(_candidateId);\n    }\n\n    // --- Admin Function to Change Deadline ---\n    function changeDeadline(uint newDeadline) public onlyAdmin {\n        require(newDeadline > block.timestamp, \"Deadline must be in the future\");\n        votingDeadline = newDeadline;\n        emit votingDeadlineChanged(newDeadline);\n    }\n}\n",
  "sourcePath": "/home/hacker/Documents/GITHUB/LEARNING_WEB3/simple_voting/voting-dapp/contracts/VotingContract.sol",
  "compiler": {
    "name": "solc",
    "version": "0.8.21+commit.d9974bed.Emscripten.clang"
  },
  "schemaVersion": "3.4.16",
  "updatedAt": "2025-06-13T05:35:37.937Z",
  "networkType": "ethereum",
  "devdoc": {
    "kind": "dev",
    "methods": {},
    "version": 1
  },
  "userdoc": {
    "kind": "user",
    "methods": {},
    "version": 1
  }
}